:020000040800F2
:1000000058130020C101000863100008C90C000843
:100010006110000861030008891E0008000000004C
:100020000000000000000000000000006117000850
:10003000ED0900080000000057120008D118000860
:10004000DB010008DB010008DB010008DB01000820
:10005000DB010008DB010008DB010008DB01000810
:10006000DB010008DB010008DB010008DB01000800
:10007000DB010008DB010008DB010008DB010008F0
:10008000DB010008DB010008DB010008DB010008E0
:1000900069040008DB010008DB010008DB0100083F
:1000A000DB010008DB010008DB010008DB010008C0
:1000B000DB0100089D190008DB010008DB010008D6
:1000C000DB010008DB010008DB010008DB010008A0
:1000D000DB010008DB010008DB010008DB01000890
:1000E000DB010008DB010008DB010008DB01000880
:1000F000DB010008DB010008DB010008DB01000870
:10010000DB010008DB010008DB010008DB0100085F
:10011000DB010008DB010008DB010008DB0100084F
:10012000DB010008DB010008DB010008DB0100083F
:10013000DB010008DB010008DB010008DB0100082F
:10014000DB010008DB010008DB010008DB0100081F
:10015000DB010008DB010008DB010008DB0100080F
:10016000DB010008DB010008DB010008DB010008FF
:10017000DB010008DB010008DB010008DB010008EF
:10018000DB010008DB010008DB010008DB010008DF
:10019000DB010008DB010008DB010008DB010008CF
:1001A000DB010008DB010008DB010008DFF80CD0F0
:1001B00000F07AF8004800475D340008581300202A
:1001C0000648804706480047FEE7FEE7FEE7FEE7F1
:1001D000FEE7FEE7FEE7FEE7FEE7FEE74D19000853
:1001E000AD01000840EA01039B0703D009E008C9FC
:1001F000121F08C0042AFAD203E011F8013B00F8EC
:10020000013B521EF9D27047D2B201E000F8012B37
:10021000491EFBD270470022F6E710B513460A4686
:1002200004461946FFF7F0FF204610BD30B50446DE
:100230000020034600E05B1C934203D2E05CCD5CEF
:10024000401BF8D030BD2DE9F05F054600209246F6
:100250009B4688460646814640241BE02846414688
:100260004746224600F041F853465A46C01A91418B
:1002700010D311461846224600F028F82D1A67EBD5
:1002800001084F4622460120002100F01FF817EB1D
:1002900000094E41201EA4F10104DFDC484631462E
:1002A0002A464346BDE8F09F064C074D06E0E0684D
:1002B00040F0010394E8070098471034AC42F6D3AD
:1002C000FFF778FF148E0008348E0008202A04DB24
:1002D000203A00FA02F1002070479140C2F1200359
:1002E00020FA03F3194390407047202A04DB203A98
:1002F00021FA02F00021704721FA02F3D040C2F146
:100300002002914008431946704770B58C1810F8C8
:10031000015B15F0070301D110F8013B2A1106D14A
:1003200010F8012B03E010F8016B01F8016B5B1E64
:10033000F9D12B0705D40023521E0DD401F8013B3F
:10034000FAE710F8013BCB1A921C03E013F8015BAB
:1003500001F8015B521EF9D5A142D8D3002070BD2F
:10036000FEE700002DE9F0418AB088463B4908606D
:100370000121022000F0C8FF394F09220821384628
:1003800000F006FC09221146384600F001FC4FF44B
:100390004070089002268DF824608DF825600024B6
:1003A0008DF8264001258DF8275008A9384600F021
:1003B000B1FB14208DF81C008DF81D408DF81E40F7
:1003C0008DF81F5007A800F05DFE0121480600F0DF
:1003D000A9FF244F384600F0AFF804A800F0FFF959
:1003E0008DF816408DF8174006948DF812408DF860
:1003F0001350A8F59C4020382AD005208DF8140011
:1004000006208DF81500FA20ADF8100004A9384632
:1004100000F022F98DF80A408DF80B408DF80C5051
:10042000ADF80040ADF80240ADF80440ADF806402C
:10043000ADF808408DF80D50684600F099F801229B
:100440000221384600F0FEF80AB00120BDE8F08134
:1004500004208DF814008DF81560D4E74C000020BE
:10046000000402400064004010B588B0142103A8C5
:10047000FFF7D1FE002000900190029003AA002116
:10048000294800F06BF99DF81400042832D0039835
:10049000ADF800009DF81500022802D101208DF86A
:1004A00002009DF816008DF80300002003A96A469B
:1004B00004E00B181418DB7A2371401C9DF80330FC
:1004C0008342F6DCBDF800000B21B1EBD01F24D134
:1004D000A0F5A06081380DD19DF8040043280BD011
:1004E0004B2807D19DF808009DF8091040EA01202B
:1004F0000E49088008B010BD9DF808009DF809104D
:100500009DF80B2040EA01209DF80A10090441EAF9
:100510000261084306490860ECE70648694600683E
:1005200002F0FAFBE6E700000064004082000020D1
:10053000840000204C00002010B50C4988420AD1EC
:1005400001214C06204600F0FBFE2046BDE810408D
:10055000002100F0F5BE01218C06204600F0F0FEDF
:100560002046BDE81040002100F0EABE00640040D3
:10057000F0B5827A01219140304C226842F00102AC
:1005800022602E4D1C352A688A432A602B4A067B3E
:100590000C322B4B002E14D116688E431660468801
:1005A000C78846EA0746877A03EBC707C7F840665D
:1005B0000688878846EA0746877A03EBC707C7F8A5
:1005C0004466067B012E14D116680E4316604288DD
:1005D000068842EA0642867A03EBC606C6F840263B
:1005E000C288868842EA0642867A03EBC603C3F8CD
:1005F0004426124AC37A121D3BB113680B431360A1
:100600000E4A0389143223B106E013688B4313604A
:10061000F6E713688B4313600389012B02D113683B
:100620000B431360407B012802D1286808432860EF
:10063000206820F001002060F0BD0000006600404E
:1006400000600040002A03D042690A4342617047BB
:1006500042698A434261704710B50022036823F063
:1006600002030360036843F0010303604FF6FF7366
:1006700000E0521C4468E40701D19A42F9D1426873
:10068000D2073ED08A79012A3DD0026822F080024A
:100690000260CA79012A3BD0026822F0400202605F
:1006A0000A7A012A39D0026822F0200202604A7ACE
:1006B000012A37D0026822F0100202608A7A012AE9
:1006C00035D0026822F008020260CA7A012A33D0CB
:1006D000026822F0040202608A78CC78920742EA2B
:1006E00004620C7942EA04424C79098842EA0452D5
:1006F000491E0A43C261016821F001010160002125
:1007000020E0002010BD026842F080020260C0E7D5
:10071000026842F040020260C2E7026842F0200232
:100720000260C4E7026842F010020260C6E7026895
:1007300042F008020260C8E7026842F00402026068
:10074000CAE7491C4268D20701D09942F9D14068F2
:10075000C00701D0002010BD012010BD10B500EB76
:100760000113D3F8B04104F004041472002C2CD00F
:10077000D3F8B041E408546003F5D8731C6804F062
:10078000020454725C6804F00F0494725C68240ADA
:10079000D4749C68D4729C68240A14739C68240CDA
:1007A00054739C68240E9473DC68D473DC68240A48
:1007B0001474DC68240C5474DB681B0E937449B108
:1007C000016941F02001016110BDD3F8B041640D11
:1007D0001460D1E7C16841F02001C16010BD002163
:1007E0008171C171017241728172C1728170C17077
:1007F000032101710221417101210180704730B54F
:100800000246002093685B010AD49068000101D57C
:10081000012005E09068C00001D5022000E004201E
:1008200004283BD002EB0012D2F8803103F0010320
:10083000C2F880310B7A93B3D2F880414D681C43E3
:100840004B7A43EAC5031C43C2F880418B7A03F01C
:100850000F038B7202F5C072536823F00F035360CD
:1008600053688C7A23435360CB7A8C7B0D7B43EAAD
:1008700004634C7B240444EA052423439360CB7B2C
:100880008C7C43EA04634C7C097C240444EA012107
:100890000B43D360116841F00101116030BDFFE7E7
:1008A000D2F880314C7A23430C8843EA4453C2F88F
:1008B0008031CBE710B50021174807F0DBFA0021A3
:1008C000154807F0E1FB0521134807F0DDFB12494D
:1008D0001248C1F8980040F6B8342146012000F0D3
:1008E000C1FB41F28831022000F0BCFB214603200D
:1008F00000F0B8FB01220221074802F00DFE0122A0
:100900000321054802F008FE0122BDE8104011460F
:10091000014802F001BE0000E00B0020280000208A
:1009200030B40A46D0F89C1051F82210C1F30741A8
:10093000D0F8A0404FF0FF3324F8123001224318C2
:1009400083F8B020D0F8AC2030BC10472DE9F04F30
:10095000DDE90A48099E4FF0FF3C43E0A51A6DB25D
:10096000002D03DD0F7807FA05F704E00F78C5F1D5
:10097000000527FA05F707F0FF0902DDC4F10805B5
:1009800001E0C2F10805EDB2854200D9054604EB4D
:10099000050A4FF0FF0B0BFA0AF7C4F108042BFA13
:1009A00004FB47EA0B0729EA070934783C4044EA8C
:1009B000090434702A44D2B2072A05D900220BB1A7
:1009C000644600E0012421440AF0FF04072C07D903
:1009D0000024B8F1000F01D0674600E001273E4433
:1009E000401BC0B20028B9D1BDE8F08F70470000AD
:1009F00070B586B00121084600F086FC0121102068
:100A000000F0ACFC1E4E07220A21304600F0C0F870
:100A100007220921304600F0BBF800248DF816406B
:100A200001208DF8170002258DF814504102049121
:100A30008DF8155004A9304600F06CF88DF814506C
:100A40006802049004A9304600F064F84FF4E130E5
:100A50000090ADF80440ADF80640ADF80840ADF8A0
:100A60000C400C20ADF80A00064C6946204601F007
:100A7000A9F90121204601F091F906B070BD0000EE
:100A800000000240001001401CB504460DA0CDE955
:100A9000000443F220336A220FA116A001F012FADB
:100AA000601C0CD01949B1F90000844201D1401EEC
:100AB0000880174A04EB4401002002F831004FF08F
:100AC000FF301CBD44656C416C61726D2E20686105
:100AD0006E646C65203D20002E2E5C2E2E5C434102
:100AE0004E6F70656E5C7372635C74696D65722EB7
:100AF0006300000025732C2564203A2030582578A7
:100B00002025732030582578200D0A00440000204D
:100B1000940E00202DE9F041002201274FF0030C34
:100B200007FA02F50B682B40AB422CD10668530044
:100B30000CFA03F4A64306600E79D0F800809E40BC
:100B400046EA080606600E79012E01D0022E12D167
:100B50008668A64386604E79D0F808809E4046EAB3
:100B6000080686604668AE43466045688E799640C2
:100B7000B6B235434560C568A543C560CC799C4095
:100B8000C3681C43C460521C102AC9D3BDE8F0815D
:100B900010B54B07DB0E9A40C90800EB8100016AD3
:100BA0000F249C40A1430162016A1143016210BD00
:100BB0000246002012690A4200D00120704741839A
:100BC00070470183704700007CB50646D6F83801AF
:100BD0000088002836D000201EA1CDE90010034671
:100BE000D72224A12AA001F06DF90024351995F827
:100BF000B0000F2821D030680078A0421DD095F8B1
:100C0000400188B928A0CDE900040023E42219A1FD
:100C10001FA001F057F9D6F8342112B12146304611
:100C20009047012085F8B00095F84001401E85F8F6
:100C300040012146304602F027FC641CE4B2802CBF
:100C4000D4D37CBDB6F93001FFF71EFFA6F8300102
:100C50007CBD000050726F647563696E67206E6FB3
:100C6000646567756172642D7265717565737473FF
:100C70003A2000002E2E5C2E2E5C43414E6F706594
:100C80006E5C7372635C6C6966656772642E630088
:100C900025732C2564203A20305825782025732090
:100CA00030582578200D0A004E6F64652047756125
:100CB000726420616C61726D20666F72206E6F6469
:100CC000654964203A200000FEE700001CB50121C0
:100CD000052000F019FB0120009000208DF8040091
:100CE0008DF8070069460548FFF714FF4FF40050E0
:100CF000009069460248FFF70DFF1CBD000002404E
:100D00000008024070B504460D4629462046FFF70C
:100D10004FFF012801D0002070BD29462046FFF773
:100D200047FF0128F9D0012070BD00002DE9FC41EA
:100D300001218C2000F0E8FA4FF480660096012033
:100D40008DF8040000218DF806108DF807008DF84D
:100D50000510184F69463846FFF7DCFE7400009412
:100D600069463846FFF7D6FE650000956946384665
:100D7000FFF7D0FE009469460F48FFF7CBFE202115
:100D80000091DFF8388069464046FFF7C3FE3146E0
:100D90003846FFF716FF21463846FFF712FF29466F
:100DA0003846FFF70EFF20214046FFF708FFBDE859
:100DB000FC810000001C0240000C024000080240C0
:100DC00070B501213F48FFF79DFF00253E4C0128EB
:100DD00006D16078401CC0B26070042800D96570EC
:100DE000627842F20406012A02D0032A1DD10BE0E8
:100DF0000121304600F012FB0221304600F00EFBCC
:100E00006078401C607010E02F4B01229B1C314623
:100E10002B2001F03BF82C4B02229B1D3146232056
:100E200001F034F86078401C60704FF4005127489E
:100E3000FFF768FF264C012811D194F8B10005286E
:100E400004D102220121204602F066FB94F8B10091
:100E5000042804D1012211461D4802F05DFB1D4803
:100E60008178012910D1857000F0DAFE94F8B10084
:100E7000042805D0012803D094F8B200012803D13A
:100E800064211548FFF7C7F994F8B120134D4FF4CA
:100E90008061012A0DD02846FFF793FE94F8B22016
:100EA0004FF40061012A08D02846BDE87040FFF7E2
:100EB00088BE2846FFF783FEF0E72846BDE870406D
:100EC000FFF77DBE0000024028000020000802401D
:100ED000E00B0020240E0020300E0020001C0240F9
:100EE00030B50024146041F20265431BA84279D05A
:100EF00038DC41F20445A0EB0503A8425FD01BDCBF
:100F0000B0F5945F51D00BDCB0F5805F43D06FF447
:100F10008053C01841D0162841D0172870D142E024
:100F2000B0F5A05F43D06FF4A052801841D00128E3
:100F300041D002287FD140E0052B4BD008DC012BAB
:100F40003FD0022B3FD0032B3FD0042B73D13FE087
:100F5000062B41D0B3F5FE7F40D0A3F58073FD3B57
:100F600069D13DE040F6FE12A3F6FE1093424CD04C
:100F700008DC092B5FD2DFE803F05E37393B3D3FE9
:100F800041444600092856D2DFE800F05541434568
:100F900047494B4D4F00002048E0012046E0022029
:100FA000274B136042E0032040E004203EE0052090
:100FB0003CE006203AE0072038E0082036E009202F
:100FC00034E00A2032E00B2030E00C202EE009E073
:100FD0000D202BE00E2029E00F2027E0102025E037
:100FE000112023E0122021E013201FE014201DE037
:100FF00015201BE0162019E0172017E0182015E037
:1010000019E0192012E01A2010E01B200EE01C202D
:101010000CE01D200AE01E2008E01F2006E0202032
:1010200004E0212002E0222000E023200C6005499A
:1010300001EBC00030BD04480860002030BD000056
:10104000E0000020C4850008000002069F2803D1AC
:10105000087808B101487047002070473000090641
:10106000FEE7704710B5002809D0054B421E1C68EA
:1010700044F822101B6841EA004043F8220010BDEA
:101080007C0C002030B50F23C27801250178002A9E
:101090001FD0154A126802F4E062C2F5E062C2F3A2
:1010A0000722C2F10404D3404278A24084781C4055
:1010B0001443220101F1E02181F80024007800F0BE
:1010C0001F018D404009800000F1E020C0F8005170
:1010D00030BD01F01F0085404809800000F1E0208C
:1010E000C0F8805130BD00000CED00E010B507F0F5
:1010F0008BF8002010BD10B50446204602F058F8C9
:10110000204602F017F8002010BD10B50446204616
:1011100002F0DEFA204602F057FA002010BDD0F8A7
:101120000812097800290BD1002205E0D0F80C3212
:1011300043F82120491CC9B290F805328B42F5D8FA
:101140000020704730B4846801EBC10202254FF0E3
:10115000FF3305EB4205635300238468062505EB46
:101160004202A35230BCC9B206F096BB30B48468C8
:1011700001EBC10204254FF0FF3305EB4205635339
:10118000836813F8124024F0010403F8124030BCC5
:10119000C9B206F081BB00002DE9FC4180464FF446
:1011A000C055D8F814000489D8F818000789002C15
:1011B00014D00D4E10E06B4601AA2946404606F0B9
:1011C00061FB019820B9009A12B19660D660566111
:1011D0006D1CADB2641CA4B2BC42ECD94046BDE863
:1011E000FC41002101F0A8B8011B00082DE9F047DF
:1011F0000446002760690589A069B0F80890002DB1
:1012000026D1BDE8F087A16807EBC706022000EBF6
:10121000460831F90800FFF737FCA16821F80800FB
:10122000A168042000EB460831F90800FFF72CFC08
:10123000A16821F80800A168002001F81600A16843
:10124000062202EB460288527F1CFFB26D1CADB233
:101250004D45D8D9D5E7704710B586B00446D4F8C7
:10126000A4000088002822D02068007800F5E06003
:10127000ADF80C0001208DF80F0000208DF80E0055
:1012800094F878008DF8100094F878000BA1CDE95F
:10129000001043F23013BD220EA115A000F012FE83
:1012A00003A9D4F8E00101F075FD06B010BD34F9D2
:1012B000A80FFFF7E9FB2080F7E7000050726F648A
:1012C0007563696E67206865617274626561743AFE
:1012D000200000002E2E5C2E2E5C43414E6F706568
:1012E0006E5C7372635C6C6966656772642E630022
:1012F00025732C2564203A2030582578202573202A
:1013000030582578200D0A00054A002903D01168BD
:1013100001431160704711688143116070470000FC
:1013200030380240054A002903D01168014311609A
:1013300070471168814311607047000040380240D7
:10134000054A002903D011680143116070471168F4
:10135000814311607047000020380240054A00298F
:1013600003D0116801431160704711688143116017
:10137000704700004438024070B5244B196801F0F2
:101380000C01234C00291ED0224E04291DD008290F
:101390001DD00460196801F0F00109091E4A545C6F
:1013A0000168E14041601C6804F4E054A40A145D43
:1013B00021FA04F484601B6803F460435B0BD25C85
:1013C000D140C16070BD0460E4E70660E2E70F4A07
:1013D000121F1168C1F38055116801F03F0135B14A
:1013E000B6FBF1F11468C4F38814614305E0B4FB63
:1013F000F1F11468C4F3881461431268C2F3014226
:10140000521C5200B1FBF2F10160C3E70838024000
:101410000024F40040787D0114000020084A402395
:1014200013705070000A9070D170002010715071CC
:101430009071D071134600220221024806F080BB51
:1014400032000020E00B00207CB514461D466B46A0
:1014500001AA06F017FA019931B9009921B1007972
:10146000A04201D941F8245001987CBD2DE9FC41EE
:1014700005460E466869408800285CD006EB860168
:1014800005EB011494F828100844A969498888429A
:1014900051D8696851F83000C06A0778002027A148
:1014A000CDE9001041F6012393222EA133A000F0D4
:1014B00009FD38A0CDE9000742F6022843469422F0
:1014C00028A12EA000F0FEFC283437A12089434635
:1014D000CDE90010952223A128A000F0F3FCA07A0A
:1014E00036A1CDE90010434696221EA123A000F0AC
:1014F000E9FC4FF0FF30A4F84A008520A070DFF827
:10150000D080A07ACDE90008238922786178284626
:1015100006F012FCC4F80480E26C283C12B1394693
:1015200028469047E06A404505D1F1B22846BDE81B
:10153000FC4106F05DB9BDE8FC81000053444F203A
:1015400074696D656F75742E2053444F20726573F6
:10155000706F6E7365206E6F742072656365697657
:1015600065642E002E2E5C2E2E5C43414E6F7065FE
:101570006E5C7372635C73646F2E630025732C253D
:1015800064203A203058257820257320305825785B
:10159000200D0A00736572766572206E6F64652097
:1015A0006964203A200000002020202020202020F4
:1015B00020696E646578203A2000000020202020F9
:1015C0002020737562496E646578203A200000001F
:1015D000000004052DE9FF4107460D4618A0CDE99E
:1015E000000543F608263346CF221CA121A000F0B7
:1015F00069FC05EB850007EB0014606B08B9A06B74
:101600006063606B0390012003A9CDE90010029094
:1016100004F13C0394F83220218E384601F006F89C
:10162000002809D119A0CDE900053346E7220BA116
:1016300010A000F047FC002004B0BDE8F0810000DD
:10164000456E74657220696E2053444F6C696E65F7
:10165000546F4F626A646963742000002E2E5C2E02
:101660002E5C43414E6F70656E5C7372635C736495
:101670006F2E630025732C2564203A20305825787E
:101680002025732030582578200D0A00657869746C
:10169000206F662053444F6C696E65546F4F626AC9
:1016A00064696374200000007CB501EB810100EBEC
:1016B00001118C6BA01820280CD90EA0CDE90002D6
:1016C00041F615234FF4B37219A11FA000F0FAFBE5
:1016D000FF207CBD002006E026180E441D5C86F825
:1016E0003C50401CC0B29042F6D3886B10448863D3
:1016F00000207CBD53444F2053697A65206F6620DB
:101700006461746120746F6F206C617267652E2054
:101710004578636565642053444F5F4D41585F4C85
:10172000454E4754485F5452414E5346455200007F
:101730002E2E5C2E2E5C43414E6F70656E5C737274
:10174000635C73646F2E630025732C2564203A203C
:10175000305825782025732030582578200D0A0030
:10176000704700002DE9F05F81468A4616461F4605
:1017700000251F4CDFF87C80B8F90000401C05E014
:101780000EB1217851B16D1C2DB21834854201DCA7
:10179000082DF5DB4FF0FF30BDE8F09F854201D109
:1017A000A8F8000001F034FC834638464FF6FF717C
:1017B000884200D30846D8F80410594509D9A1EB4E
:1017C0000B01814205D90BEB0001C8F8041006F0AB
:1017D000B5FCA660C4F80490C4F80CA007EB0B009D
:1017E00020610A986061012020702846D4E700003B
:1017F000940E0020440000201CB5002101910091AE
:101800002E4A106840F4803010604FF4A0431068F6
:1018100000F4003000900198401C0190009810B92D
:1018200001989842F3D11068800302D501200090FE
:1018300000E00091009801283FD120484030016825
:1018400041F0805101601E49086840F44040086042
:101850001A48083003680360036843F400430360D8
:10186000036843F4A0530360041F164B23601368FE
:1018700043F08073136013689B01FCD50A6842F43F
:1018800080320A604A68D203FCD50A6842F400320A
:101890000A604A689203FCD50B4A40F20571116058
:1018A000016821F003010160016841F0020101605B
:1018B0000168C1F381010229FAD11CBD0038024040
:1018C00000700040195A4007003C024006F088BAF8
:1018D00030B40E48012303700179491CC9B201716B
:1018E0004279521CD2B24271047A012C02D1C488CE
:1018F000641CC4800024062901D304714370642A47
:1019000001D34471837030BC00F080B9240E0020F4
:101910000C4864210068B0FBF1F0401EB0F1807FFC
:1019200001D301200AE04FF0E0214861064AF0208F
:10193000107000208861072008610020002800D076
:10194000FEE770470000002023ED00E010B50F48CF
:10195000016841F0010101600C4A00210832116068
:1019600002680B4B1A400260031D0A4A1A600268A3
:1019700022F48022026005480C300160FFF73CFF32
:1019800005494FF00060086010BD000000380240BB
:10199000FFFFF6FE1030002408ED00E010B50A4C01
:1019A0000121204600F05BF800280BD007480021F9
:1019B000016041600121204600F040F8BDE8104080
:1019C00000F0D4B810BD000000040040500000201A
:1019D0001FB501210220FFF7A5FC1D208DF80C008A
:1019E00000248DF80D4001208DF80F0003A8FFF7AB
:1019F00049FB40F283304FF6FF710191ADF80000D2
:101A0000ADF80840ADF802400B4C6946204600F0A6
:101A100039F80121204600F011F80121204600F09C
:101A200010F80121204600F02BF801221146204633
:101A300000F01CF81FBD000000040040C9430182F3
:101A40007047002904D0018841F0010101807047EE
:101A5000018821F0010101807047406A7047024609
:101A60000020128A0A4200D001207047002A03D0C9
:101A700082890A438281704782898A4382817047C2
:101A80004162704730B50288164C174DA0420DD008
:101A9000A8420BD0B0F1804F08D0144B984205D02B
:101AA000134B984202D0134B984203D122F070039B
:101AB0004A881A43104B984206D0104B984203D0E4
:101AC00022F440730A891A4302804A68C2620A8873
:101AD0000285A04201D0A84201D1897A0186012164
:101AE000818230BD0000014000040140000400403C
:101AF00000080040000C00400010004000140040AE
:101B00002DE9F041044694F87E00002805D0022A11
:101B100006D0032A04D0052A02D00020BDE8F081B7
:101B20006269A088127A00EBC200081AC0F3C705E8
:101B3000A16805EBC506022000EB4607C85FFEF76B
:101B4000A3FFA168C853A168042000EB4607C85F43
:101B5000FEF79AFFA168C853A168002001F816009B
:101B600029462046FFF7EEFA0020D7E72DE9F0419D
:101B70004FF6FF7401F04CFA0346224E7068C51808
:101B8000002221491EE00878C00718D00869A84241
:101B900010D8486958B1B3FBF0F700FB1737C01BEA
:101BA000086103270F70A04209D2044607E0022013
:101BB000087004E0401B0861A04200D20446521C99
:101BC00012B21831B6F900008242DCDD74602046A2
:101BD00006F0B4FA00250C4C0DE02078810707D5FB
:101BE00020F002002070A26812B1E168606890479E
:101BF0006D1C2DB21834B6F900008542EDDDBDE84C
:101C0000F081000044000020940E00200348016889
:101C1000002902D00168491E01607047240000209D
:101C20003B4801883B4820F8081C3B49098820F8BC
:101C3000061C3A49098820F8041C3949098820F80B
:101C4000021C384909880180374909884180374991
:101C50000988818036490988C1803649098801810F
:101C60003549098841813549098881813449098884
:101C7000C181344909880182334909884182334945
:101C80000988818232490988C182324909780176FE
:101C900031490978417631490988418330490978C9
:101CA00001773049097841772F49097881772F49A1
:101CB0000978C1772E49097880F820102D490978D4
:101CC00080F821102C49098841842C490968416217
:101CD0002B49097880F8281080F8291029490978BB
:101CE00080F82C102849097880F82D1027490978A8
:101CF00080F830102649097880F831102549097894
:101D000080F834102449097880F8351070470000B5
:101D100058000020380E00205A0000205C000020EF
:101D20005E000020600000206200002064000020AF
:101D300066000020680000206A0000206C0000207F
:101D40006E0000207000002072000020740000204F
:101D50007600002078000020790000207A00002022
:101D60007C0000207D0000207E0000207F000020FD
:101D700080000020810000208200002084000020DC
:101D8000880000208C0000208D00002090000020A2
:101D9000910000209400002095000020002904D02C
:101DA000818941F4005181817047818921F400517A
:101DB000818170470246002012880A4200D001202B
:101DC000704700007FB504460D46208A20F440513C
:101DD000E88808432082A08941F20C618843A988E1
:101DE0002A8911436A8902431143A181A08A20F400
:101DF0004071A8890843A0826846FFF7BDFA1E48D3
:101E0000844202D01D48844201D1039800E0029828
:101E1000A189090408D500EBC00101EB0010296875
:101E20004900B0FBF1F007E000EBC00101EB00104E
:101E300029688900B0FBF1F06422B0FBF2F10901DE
:101E40000B096FF018056B4300EB8300A3891D0499
:101E50004FF0320307D503EBC000B0FBF2F000F007
:101E60000700084306E003EB0010B0FBF2F000F0BF
:101E70000F00084320817FBD001001400014014085
:101E8000C1F3080181807047FEE7000030B40A4CBE
:101E900020706170080AA070E270D878207198787C
:101EA00060715878A0711878E0712346002230BC28
:101EB0000221024805F044BE3A000020E00B002059
:101EC000704700000FB4054B10B503A9044A0298EF
:101ED00000F0D2F810BC5DF814FB0000ED2F0008F4
:101EE000200E002002E008C8121F08C1002AFAD103
:101EF00070477047002001E001C1121F002AFBD18A
:101F0000704700002DE9FF47DDE90D680C9D89460B
:101F100017461C46D0F8E43102AA03A94846984760
:101F2000039919B1084604B0BDE8F0870179B942B8
:101F300009D8334C00231A4639464846009400F02D
:101F40003BFC2046EFE707EB4701B8F1000F18D044
:101F5000026812F82120D30713D02AA0CDE900028D
:101F600042F630336C222BA132A0FFF7ABFF374C87
:101F700000231A4639464846009400F01DFC2046CE
:101F8000D1E76CB10423026803EB8103D5F800802C
:101F900052F803C0C44506D9C5F800C02C48C2E7B2
:101FA0004FF00060BFE74FF0010C0CEB8101525C79
:101FB00032700068C658082107EB470301EB830124
:101FC000092A06D0415832462046FEF70BF92E600A
:101FD00013E040580746296801B931460A1802E063
:101FE00004F8011B401C017809B19042F8D3C11BD1
:101FF0002960B14201D200210170002093E7000066
:10200000110009064163636573732054797065207C
:102010003A2000002E2E5C2E2E5C43414E6F7065E0
:102020006E5C7372635C6F626A61636365732E6377
:102030000000000025732C2564203A2030582578B4
:102040002025732030582578200D0A000100010654
:102050000500040570477047704770477047704728
:10206000704770477047016A0978002902D18122C0
:1020700001F052BA704700002DE9FF4F8DB09B462A
:102080000F460446002606E025280BD05A460F9935
:102090009047641C761C20780028F5D111B030469A
:1020A000BDE8F08F0025A8460122984900E00543CD
:1020B00014F8013F203B02FA03F00842F7D12078E0
:1020C0002E2817D114F8010F45F004052A280ED048
:1020D0006FF02F022078A0F1300109290AD808EB0F
:1020E000880102EB410100EB0108641CF2E757F89C
:1020F000048B641C20786C280DD004DC4C2812D092
:102100006A2811D104E074280DD07A280CD10AE095
:1021100045F4001507E0617845F48015814202D14D
:10212000641C05F58015641C2278692A45D008DCFA
:10213000002AB3D0582A69D0632A10D0642A08D163
:102140003BE0702A67D0732A13D0752A5CD0782AB6
:102150005CD010465A460F999047761CD3E017F88A
:10216000040B8DF8000000208DF80100E9460120E5
:1021700003E057F8049B4FF0FF3069074FF000056C
:1021800001D40AE06D1C45450DDA8542FADB19F8E9
:1021900005100029F6D106E06D1C8542FCDB19F81C
:1021A00005100029F8D12E4404E019F8010B5A4615
:1021B0000F9990476D1EF8D2A5E00A200021CDE9C5
:1021C0000801C5F3025002280DD001CFC117031E2C
:1021D00071F100030DDA4FF0000CD0EB0C006CEB4A
:1021E00001012D2308E0FF1D27F00707F7E8020192
:1021F000EDE72B0504D52B238DF8283001233BE098
:10220000EB0739D02023F7E70A2000E01020002157
:10221000CDE9080107E01020002145F00405CDE9D3
:1022200008014FF00808C5F3025002280FD001CF73
:1022300000214FF0000A2B071FD5702A0DD0DDE9D1
:1022400008C38CF0100C5CEA030C0CD015E0FF1DE9
:1022500027F00707F7E80201EBE740228DF8282076
:102260004FF0010A0BE050EA010306D030238DF84D
:1022700028308DF8292002239A46582A04D024A217
:102280000DF120090B9209E026A2F9E7DDE9082308
:10229000FDF7D9FF0B9B9B5C09F8013D50EA010259
:1022A000F4D1ADEB090020300890680701D44FF05D
:1022B00001080899884502DDA8EB010000E0002034
:1022C0008046002506E00AA85A46405D0F999047CF
:1022D0006D1C761C5545F6DB04E030205A460F99FC
:1022E0009047761CB8F10001A8F10108F5DC05E083
:1022F00019F8010B5A460F999047761C0899481E09
:1023000008900029F4DC641CC5E6000009280100DF
:10231000303132333435363738396162636465665B
:10232000000000003031323334353637383941421D
:1023300043444546000000002DE9F04786B00546BD
:1023400088460024032168690789A869B0F80890C5
:1023500095F87E0000280AD0002F7CD04FF0000AAC
:10236000CDF80CA0CDF810A0CDF814A0EBE0002023
:1023700006B0BDE8F087032910D005296CD00B29E1
:102380006BD073A0CDE9000141F672134FF438729F
:1023900078A17EA0FFF796FDFF20E9E7686850F876
:1023A00037004169096800290EDA04F5C0507DA1A3
:1023B000CDE9001043F6601340F28A226DA173A0AC
:1023C000FFF780FD0B21BEE0066A04F5C0507AA13C
:1023D000CDE9001043F6621340F2922265A16BA092
:1023E000FFF770FDB8F1000F3ED0307800283BD0E9
:1023F000F02839D8A96804EBC40011F81020521C49
:10240000D2B201F8102031788A422DD1A96801F8A2
:1024100010A030786EA1CDE9001043F6641340F2AD
:102420009E2254A159A0FFF74DFDCDF80CA0CDF888
:1024300010A0CDF814A003AA2146284600F02AFBDC
:1024400080B16CA0CDE9000441F6061340F2A7224A
:1024500048A14EA002E079E05EE064E0FFF732FDC3
:102460000B2170E005216EE0B8F1000F02D030784A
:10247000FC2809D0B8F1000F02D03078002845D0F0
:10248000B8F1000F28D033E004EBC4060621A86899
:1024900001EB460142182146284600F0FBFA90B1B4
:1024A00054A0CDE9000441F666134FF42D7231A11A
:1024B00036A0FFF707FDA86810F8161021F00101FB
:1024C00000F8161006E0A86810F8161041F0010197
:1024D00000F816100B2136E03078FF2801D0FE28D6
:1024E00006D1A86804EBC40110F81100C0070DD094
:1024F00030784849CDE9001043F26C0340F2CD2218
:102500001CA122A0FFF7DEFC0B211CE0214628467F
:1025100005F0C2F90B2116E003AA2146284605F072
:10252000B5FA0B210FE0641CE4B27F1CBFB23AA0E5
:10253000CDE9000443F6701340F2DB220DA113A095
:10254000FFF7C0FC03214F457FF615AF00200FE7D2
:10255000556E6B6E6F776E20737461746520686161
:1025600073206265656E2072656163686564203AF8
:10257000000000002E2E5C2E2E5C43414E6F7065D5
:102580006E5C7372635C70646F2E630025732C2520
:1025900064203A203058257820257320305825783B
:1025A000200D0A004E6F7420612076616C696420F2
:1025B00050444F200000000052656164696E67203E
:1025C00050444F20617420696E646578203A200081
:1025D000202050444F206973206F6E2053594E4382
:1025E00048524F2E205472616E73207479706520AA
:1025F0003A20000020436F756C646E27742062756A
:10260000696C64205450444F206E756D6265722071
:102610003A200000008700086E6578742070646FAF
:1026200020696E646578203A200000002DE9FF4F94
:1026300085B08146DDE912469046D9F8E43103AA17
:1026400004A9069898470546049800280BD12879D4
:1026500040450BD8424D009500224146236806981C
:1026600000F0AAF8284609B0BDE8F08F08EB48074B
:1026700026B1286810F82700022811D00121286807
:1026800001EB870110F801A0042101EB87014658F6
:102690002068D8B1B04219D0BAF1090F14D054E073
:1026A00030A1CDE9001042F62533C42231A139A072
:1026B000FFF708FC3D4D009500224146236806982F
:1026C00000F07AF82846CEE7B0423ED2D9F824206E
:1026D000504608999047049040B1009032464146D8
:1026E0002368069800F068F80498BCE70820296879
:1026F00000EB870B226851F80B000899FDF772FD7B
:10270000BAF1090F07D12068B04204D22A6800212B
:1027100052F80B2011542660039848B150F8283025
:1027200033B14246294648469847049000289AD13A
:10273000286810F82700400705D5D9F8E831424647
:1027400048460699984700208DE72660184C334686
:10275000324641460094069800F02EF8204682E763
:102760001100090641636365737320547970652015
:102770003A2000002E2E5C2E2E5C43414E6F706579
:102780006E5C7372635C6F626A61636365732E6310
:102790000000000025732C2564203A20305825784D
:1027A0002025732030582578200D0A0002000106EC
:1027B00010000706704770472DE9FC41089D04464C
:1027C0000E461746984648A0CDE9000442F6093364
:1027D00031224AA151A0FFF775FB56A0CDE90006B2
:1027E00042F61033322245A14CA0FFF76BFB57484D
:1027F000291A854242D00BDC5548281833D0A0F561
:102800007F40FE3819D0A0F50030413808D14AE0A9
:102810006FF4003008181BD020284FD0212858D042
:102820004CA0CDE9000542F620334B2233A13BA05A
:10283000FFF748FB0020BDE8FC814CA0CDE9000477
:1028400042F6113335222DA134A0FFF73BFBF1E70F
:102850004BA0CDE9000642F61233382227A12FA063
:10286000FFF730FBE6E74BA0CDE9000442F6133357
:102870003B2222A129A0FFF725FBDBE74FA0CDE9F2
:10288000000742F614333E221CA124A0FFF71AFBD6
:1028900055A0CDE9000842F615333F2217A11FA02D
:1028A000FFF710FBC6E758A0CDE9000442F6163347
:1028B000422212A119A0FFF705FBBBE75DA0CDE9FD
:1028C000000542F6173345220CA114A0FFF7FAFACF
:1028D000B0E764A0CDE9000542F61833482207A10D
:1028E0000EA0FFF7EFFAA5E744696374696F6E61A4
:1028F000727920696E646578203A20002E2E5C2E55
:102900002E5C43414E6F70656E5C7372635C6F62E8
:102910006A61636365732E630000000025732C25D4
:1029200064203A20305825782025732030582578A7
:10293000200D0A002020202020202020202020738D
:102940007562696E646578203A2000001000070601
:10295000FEFFFEF9556E6B6E6F776E206572726FBB
:102960007220636F6465203A20000000496E646540
:1029700078206E6F7420666F756E64200000000012
:10298000537562496E646578206E6F7420666F754A
:102990006E6420005772697465206E6F7420616CDC
:1029A0006C6F7765642C2064617461206973207298
:1029B000656164206F6E6C7920000000436F6E6665
:1029C0006C6963742073697A6520646174612E2078
:1029D00053686F756C642062652028627974657332
:1029E0002920203A2000000042757420796F75205C
:1029F0006861766520676976656E20746865207306
:102A0000697A6520203A20004E6F74206D617070E5
:102A100061626C65206461746120696E2061205080
:102A2000444F20617420696E646578202020203A2C
:102A30002000000056616C75652072616E6765202C
:102A40006572726F72203A2076616C756520746FC2
:102A50006F206C6F772E2053444F61626F72742029
:102A60003A20000056616C75652072616E676520C2
:102A70006572726F72203A2076616C756520746F92
:102A80006F20686967682E2053444F61626F7274CB
:102A9000203A20002DE9F74F8AB091460A98436901
:102AA0001889C00000EBC1040A984268A0185B892D
:102AB000DB0003EBC10101EB020800260024D8F87B
:102AC0000010D1F808A0016849690988C1F30A011A
:102AD000A9F80010002589F8025000684FA143F2C0
:102AE000090340693D220068CDE9001050A156A0BD
:102AF000FFF7E8F99AF8000059A1CDE9001043F278
:102B00000D033F224AA150A0FFF7DCF900200790F7
:102B10000890761C06EB46020820D8F8001000EB5F
:102B200082000F583868010C0691C5B2002D5CD0A8
:102B300004EB050BBBF1400F57D8681E012101EBD8
:102B4000D00005903868C0F3072104914CA1CDE96D
:102B5000001043F20F03532235A13BA0FFF7B2F957
:102B6000B8F806004DA1CDE9001043F250035422FD
:102B70002FA135A0FFF7A6F94CA0CDE9000643F23E
:102B8000510355222AA130A0FFF79CF909AA05ABF1
:102B9000CDE9003201210020CDE9020107AB049A02
:102BA00006990A98FFF7AEF900280ED0386844A1BC
:102BB000CDE9001041F213035A221DA122A0FFF714
:102BC00081F9FF200DB0BDE8F08F09EBD40204F0CD
:102BD0000701121DCDE90021002002900023E8B278
:102BE0001A4607A9FDF7B2FE5C46F6B29AF8000055
:102BF000B0428BD8641E012000EBD40089F803009A
:102C000000203EA1CDE9001043F215036B2208A17C
:102C10000DA0FFF757F90020D4E700002020504412
:102C20004F20436F624964206973203A20000000FE
:102C30002E2E5C2E2E5C43414E6F70656E5C73725F
:102C4000635C70646F2E630025732C2564203A202A
:102C5000305825782025732030582578200D0A001B
:102C600020204E756D626572206F66206F626A6506
:102C7000637473206D6170706564203A20000000F9
:102C80002020676F74206D617070696E67207061BD
:102C900072616D65746572203A200000202020204A
:102CA000617420696E646578203A2000202020201D
:102CB0007375622D696E646578203A20000000000B
:102CC00020436F756C646E27742066696E64206D96
:102CD0006170706564207661726961626C65206103
:102CE0007420696E6465782D737562696E646578A9
:102CF0002D73697A65203A20000000002020456E7F
:102D000064207363616E206D61707065642076610C
:102D1000726961626C65000030B40A88D3090F2BB8
:102D200035D2DFE803F02D083418181818181818D1
:102D3000181F1F342600802A06D090F87B20002A16
:102D400025D030BC00F032BD90F87C1000291ED098
:102D500030BC04F0F7BC90F87E20002A17D030BCBD
:102D600000F00EBF90F87A20002A10D030BC01F09D
:102D7000A3B990F87D20002A09D030BC00F012BE23
:102D8000026A1278002A02D030BC00F073BD30BC59
:102D90007047000010B586B00C46142101A8FDF75D
:102DA0003AFA2088019000208DF80C00A17819B122
:102DB00002208DF80D0001E08DF80D00E0788DF80F
:102DC0000E00002001A904E022180B181279DA7213
:102DD000401CE2788242F7DC01A90548FDF70FFDAF
:102DE000042802D0012006B010BD0020FBE700003F
:102DF0000064004010B50446054B002241F2030177
:102E00002046FEF721FBD4F808020021017010BD16
:102E10001F110008704700002DE9FE4FDDE90C8707
:102E20000446894616469A4602AB32464946204633
:102E300000F054F9054665B99DF808003CA1CDE9BC
:102E4000001043F6202340F2A71240A145A0FFF74F
:102E500039F89DB9012E11D19DF80810204604F0D3
:102E6000C7FC9DF8080045A1CDE9001043F62123D9
:102E70004FF4D57235A13BA0FFF724F8002D31D1D6
:102E8000022E2FD19DF8080044A1CDE9001043F691
:102E9000052340F2AD122DA132A0FFF713F89DF8E3
:102EA000080000EB800004EB0010B0F97200FDF7A1
:102EB000EBFD01469DF8080000EB800004EB0010DC
:102EC000A0F872109DF80800852100EB800004EB4B
:102ED000001080F82A109DF8080000EB800004EB39
:102EE0000010C762002534A0CDE9000543F6222377
:102EF00040F2B11215A11BA0FEF7E4FFCDE9008757
:102F000053464A463146204604F016FF68B12FA0CA
:102F1000CDE9000543F623234FF4DA720BA111A08B
:102F2000FEF7D0FFFF20BDE8FE8F0020FBE700008A
:102F30004661696C656453444F203A206C696E6544
:102F400020666F756E64203A200000002E2E5C2EE5
:102F50002E5C43414E6F70656E5C7372635C73648C
:102F60006F2E630025732C2564203A203058257875
:102F70002025732030582578200D0A004661696CA1
:102F8000656453444F203A206C696E652072656C0D
:102F90006561736564203A200000000053746F700F
:102FA00053444F5F54494D455220666F72206C69FF
:102FB0006E65203A2000000053656E64696E6720DC
:102FC00053444F2061626F7274200000556E61623D
:102FD0006C6520746F2073656E642074686520537F
:102FE000444F2061626F72740000000070B50446A7
:102FF000064DE1B22846FEF743FF80212846FEF742
:10300000D9FE0028F9D0204670BD00000010014014
:1030100010B50748FEF721FD064A1168884202D222
:103020004FF6FF731844401A5168084410BD000061
:103030000004004050000020006800787047000045
:103040001CB5002303EB830400EB041494F82A401E
:1030500084B15B1CDBB2002BF4D00BA0CDE90003E4
:1030600041F6252340F20E2210A116A0FEF72AFFFA
:10307000FF201CBD137003EB830200EB021080F8ED
:10308000291000201CBD0000546F6F206D616E7907
:103090002053444F20696E2070726F67726573739E
:1030A0002E2041626F727465642E00002E2E5C2EFD
:1030B0002E5C43414E6F70656E5C7372635C73642B
:1030C0006F2E630025732C2564203A203058257814
:1030D0002025732030582578200D0A0070B5002473
:1030E00004EB840500EB051595F82A606EB1852E7A
:1030F0000BD095F828608E4207D195F8295095425B
:1031000003D103B11C70002070BD641CE4B2002C1C
:10311000E6D0FF2070BD01EB810100EB0110416B97
:10312000002904D0806B081A10600020704700202E
:103130001060FAE7F8B505461A4B002241F2170174
:103140002846FEF781F9002685F8DC61002413E0AB
:10315000D5F89C0030F8240083B25BB1642043436F
:10316000114A214628460096FEF7FCFAD5F8A01031
:1031700021F81400641CE4B2D5F898000078A0424D
:10318000E6D8D5F8A4000388002B09D06420434377
:10319000064A002128460093FEF7E4FAA5F8A800A5
:1031A000F8BD0000F71000082109000859120008B6
:1031B00070B5054600240BE0D5F8A00030F91400E6
:1031C000FDF762FCD5F8A01021F81400641CE4B2ED
:1031D000D5F898000078A042EED835F9A80FFDF791
:1031E00053FC288070BD00002DE9FC5FDDE90CB6C2
:1031F00080460F4691469A462CA0CDE9000743F63B
:10320000252340F2D9122EA133A0FEF75BFE002544
:1032100007EB870008EB0014022E32D0032E30D0CB
:10322000042E2ED0052E2CD031A0CDE9000743F678
:1032300005234FF4EF7222A127A0FEF743FEB4F955
:103240007200FDF721FCA4F87200543404F82C9CA1
:1032500024F824AC04F822BC04F82A6C04F8295C95
:1032600044F8205C44F81C5C25726572A572E56028
:1032700025746574A574E574257725620020BDE882
:10328000FC9F22A0CDE9000743F606234FF4EE721F
:103290000BA111A0FEF716FE234B244A39464046E7
:1032A0000095FEF75FFAA4F87200CEE7696E6974C4
:1032B0002053444F206C696E65206E62203A2000D6
:1032C0002E2E5C2E2E5C43414E6F70656E5C7372C9
:1032D000635C73646F2E630025732C2564203A2091
:1032E000305825782025732030582578200D0A0085
:1032F00053746F7053444F5F54494D455220666F6D
:1033000072206C696E65203A20000000537461726F
:103310007453444F5F54494D455220666F72206C80
:10332000696E65203A200000E09304006D140008E7
:1033300010B504462046FFF7FDFE2046BDE81040CC
:1033400000F042B910B504462046FFF731FF204691
:10335000BDE8104000F0BCB97CB501EB810100EB89
:1033600001118C6BA01820280CD916A0CDE9000201
:1033700041F610234FF49A7221A127A0FEF7A2FD77
:10338000FF207CBD4D6BA8420CD929A0CDE90002DD
:1033900041F611234FF49D7219A11FA0FEF792FD73
:1033A000FF207CBD002006E025180D4495F83C5018
:1033B0001D54401CC0B29042F6D3886B1044886301
:1033C00000207CBD53444F2053697A65206F6620EE
:1033D0006461746120746F6F206C617267652E2068
:1033E0004578636565642053444F5F4D41585F4C99
:1033F000454E4754485F5452414E53464552000093
:103400002E2E5C2E2E5C43414E6F70656E5C737287
:10341000635C73646F2E630025732C2564203A204F
:10342000305825782025732030582578200D0A0043
:1034300053444F2053697A65206F6620646174613C
:1034400020746F6F206C617267652E20457863650C
:10345000656420636F756E7400000000FEF758FA13
:10346000FDF764FCFDF7C4FAFDF730FC44F620617B
:103470000448FCF777FFFEF7ABFAFDF71BFAFDF700
:103480009FFCFCE7E00B002010B586B0044641F439
:10349000E062ADF80C2001228DF80E2000208DF89E
:1034A0000F0008A0CDE9000143F2035351220CA103
:1034B00013A0FEF707FD03A9D4F8E001FFF76AFCAB
:1034C00006B010BD53656E645F4E4F44455F47556F
:1034D00041524420746F206E6F6465203A200000D2
:1034E0002E2E5C2E2E5C43414E6F70656E5C7372A7
:1034F000635C6E6D744D61737465722E63000000C1
:1035000025732C2564203A203058257820257320F7
:1035100030582578200D0A0070B586B006460C4656
:10352000154613A0CDE9000543F20153322214A140
:103530001BA0FEF7C7FC20A0CDE9000443F2025314
:1035400033220FA116A0FEF7BDFC0021ADF80C1030
:103550008DF80E1002208DF80F008DF810508DF8A8
:10356000114003A9D6F8E001FFF714FC06B070BDC6
:1035700053656E645F4E4D54206373203A20000003
:103580002E2E5C2E2E5C43414E6F70656E5C737206
:10359000635C6E6D744D61737465722E6300000020
:1035A00025732C2564203A20305825782025732057
:1035B00030582578200D0A0020202020746F206EBE
:1035C0006F6465203A2000007CB50446264B00223B
:1035D00041F20C012046FDF737FF234B002241F258
:1035E0000D012046FDF730FFD4F838010388002B89
:1035F00038D0D4F83C010078002833D01D46642030
:1036000005FB00F3194A002120460093FEF7AAF8B3
:10361000A4F8300116A0CDE9000500234FF4A272F2
:1036200016A11DA0FEF74EFC0021601890F8B020F6
:103630000F2A08D0226812788A4204D0D4F83C219C
:10364000127880F84021491CC9B28029EDD30020AE
:1036500017A1CDE90010034640F24D1207A10EA0BC
:10366000FEF730FC7CBD00000B110008C90B000800
:10367000477561726454696D653A20002E2E5C2E88
:103680002E5C43414E6F70656E5C7372635C6C6957
:1036900066656772642E630025732C2564203A20CA
:1036A000305825782025732030582578200D0A00C1
:1036B00054696D657220666F72206E6F64652D6748
:1036C00075617264696E67207374617274657400E9
:1036D00010B50446B4F93001FDF7D6F9A4F830016D
:1036E00010BD000030B587B005462020069001EBE4
:1036F000810005EB001417A1208E43F60523CDE9C8
:103700000010FA2219A11FA0FEF7DCFB94F832008A
:1037100022A1CDE9001043F60623FB2213A119A034
:10372000FEF7D0FB012005A9CDE9011006AA039000
:10373000009204F13C0394F83220218E2846FEF7D3
:10374000E1FB002803D1069860630020A06307B066
:1037500030BD00006F626A646963742D3E6C696EEF
:103760006520696E646578203A2000002E2E5C2E5C
:103770002E5C43414E6F70656E5C7372635C736464
:103780006F2E630025732C2564203A20305825784D
:103790002025732030582578200D0A0020207375CD
:1037A00062496E646578203A200000007CB50546C9
:1037B0000C46002014A1CDE9001043F25503F52278
:1037C00018A11FA0FEF77EFBE07808280BD0208808
:1037D00021A1CDE9001041F25603F92211A118A050
:1037E000FEF770FB7CBD207800F07F0120796279C4
:1037F00040EA0222A379D5F8384202B02846A4460E
:10380000BDE8704060470000454D43592072656334
:1038100065697665642E2050726F636565642E203D
:10382000000000002E2E5C2E2E5C43414E6F706512
:103830006E5C7372635C656D63792E6300000000DB
:1038400025732C2564203A203058257820257320B4
:1038500030582578200D0A004572726F7220736906
:103860007A6520454D43592E20436F6249642020DC
:103870003A2000007CB504460D4694F878007F2875
:1038800003D0052801D0042861D1687930A1CDE9A1
:1038900000104FF45053322234A13CA0FEF712FB2B
:1038A000687918B121680978884250D12879802830
:1038B00036D00FDC012827D0022848D194F87800B0
:1038C0007F2801D0052842D12046BDE87C40042154
:1038D00004F0DABB81282FD0822838D12046FFF7A8
:1038E000ABFB0546D4F894200AB1204690472168E6
:1038F000FF2008702946204604F0BCFA2046BDE8A7
:103900007C40002104F0C0BB94F878007F2801D0EF
:1039100004281CD12046BDE87C40052104F0B4BB3E
:1039200094F87800052801D0042810D12046BDE87D
:103930007C407F2104F0A8BBD4F8901009B1204648
:1039400088472046BDE87C40002104F09DBB7CBD3B
:103950004E4D542072656365697665642E20666FEE
:1039600072206E6F6465203A202000002E2E5C2E9F
:103970002E5C43414E6F70656E5C7372635C6E6D5E
:1039800074536C6176652E630000000025732C254E
:1039900064203A2030582578202573203058257827
:1039A000200D0A002DE9F04186B00446087800F0A9
:1039B0007F0688784FF00008012823D0087900F0AE
:1039C0007F0747A0CDE9000643F210137A224AA1EF
:1039D00050A0FEF777FAD4F83C01A519007885F8D5
:1039E000400195F8B000B84207D0D4F8D8313A4633
:1039F00031462046984785F8B07095F8B000002809
:103A000033D041E020680078B0422BD120680078A4
:103A100000F5E060ADF80C0001218DF80F108DF875
:103A20000E8094F878008DF8100094F8DC2132B103
:103A300040F080008DF8100084F8DC8101E084F80B
:103A4000DC1194F8780039A1CDE9001043F230136D
:103A5000722229A12FA0FEF735FA03A9D4F8E001BC
:103A6000FFF798F906B0BDE8F0813BA0CDE900066C
:103A70004FF44453902220A126A0FEF723FAD4F855
:103A8000D42131462046904795F8B0000F28E9D060
:103A900000251EE0D4F89C0050F82500C0F3074133
:103AA0008E4214D187B2D4F8A00030F91500FCF78B
:103AB000EBFF642007FB00F3304A29462046CDF88F
:103AC0000080FDF74FFED4F8A01021F815006D1C02
:103AD000EDB2D4F898000078A842DBD8C2E7000025
:103AE0005265636569766564204E4D54206E6F643F
:103AF000654964203A2000002E2E5C2E2E5C434146
:103B00004E6F70656E5C7372635C6C69666567723C
:103B1000642E630025732C2564203A2030582578C4
:103B20002025732030582578200D0A0053656E64D7
:103B3000696E67204E4D54204E6F646567756172E3
:103B40006420746F206D61737465722C20737461CE
:103B500074653A2000000000546865204E4D5420E2
:103B60006973206120626F6F7475702066726F6D6B
:103B7000206E6F6465203A200000000021090008D3
:103B80002DE9F04F8BB004460E464FF00208308806
:103B9000E2A1C0F30A00CDE9001043F63513C022BC
:103BA000E4A1EAA0FEF78EF94FF000090025B078F5
:103BB00010B101287DD073E160698788A069B0F8F1
:103BC00004A017BB6CE1B8F1020F03D0B8F1040FE9
:103BD0001BD11DE0606850F83700406931880088CB
:103BE00088420ED14FF0040805F5A050DDA1CDE9C3
:103BF000001043F63613D522CEA1D4A0FEF762F909
:103C000003E06D1CEDB27F1CBFB25745DBD947E125
:103C10006069C08806900698C00000EBC5000A9055
:103C200061680858806807904FF00008C346AAE012
:103C3000CDF810B0CDF814B00A9861680822095880
:103C400008F10100099000EB400002EB80000F58E2
:103C5000002F5BD097F800A0BAF1000F7ED009EBDF
:103C60000A000890F178B0EBC10F77D804A8CDE92D
:103C7000000B06EBD90109F00702091D002350468D
:103C8000CDF808B0FCF762FEAAF1010A012000EBB2
:103C9000EA01039103A9CDE9001B0290386804AB47
:103CA000C0F30722010C2046FEF7C0FC00283BD0E1
:103CB00000E089E008F10108B0A0CDE9000841F674
:103CC00038134FF489729BA1A0A0FEF7FBF8386867
:103CD000B4A1000CCDE9001042F6391340F21512E0
:103CE00094A19AA0FEF7EEF83888B5A1C0F307209A
:103CF000CDE900104FF4255340F217128DA193A087
:103D0000FEF7E0F8FF200BB0BDE8F08F08F10108E6
:103D1000B2A0CDE9000841F63713F42285A18BA0AB
:103D2000FEF7D0F8FF20EEE73088B5A1CDE900100E
:103D300043F642134FF48E727EA184A0FEF7C2F8C0
:103D4000386898A1000CCDE9001043F6431340F207
:103D50001F1278A17DA0FEF7B5F800E010E03888CA
:103D600097A1C0F30720CDE9001043F6441340F2B9
:103D7000211270A175A0FEF7A5F8089800F0FF09C0
:103D8000099800F0FF080798007840453FF650AFCB
:103D9000E068B8B16268069952F83110496C0E8833
:103DA00086B130F91500FCF76FFE642006FB00F3C6
:103DB000CDF800B0294620462269FDF7D3FCE16822
:103DC00021F8150000209EE7308896A1CDE900106B
:103DD00043F6461340F2371256A15CA0FEF772F884
:103DE000012061690F89A169B1F80880002F55D1C0
:103DF00056E0012804D0042811D005284ED172E0E5
:103E0000616851F83710496932880988914201D1B7
:103E1000042043E06D1CEDB27F1CBFB23EE0606841
:103E200050F83700016A0878FD2814D0FC2814D017
:103E30000978FF2936D0FE2834D0308881A1CDE919
:103E4000001042F6471340F289123AA13FA0FEF754
:103E500039F8FF2057E7052020E0A06805EBC501F1
:103E600010F81100C0070CD005EBC5010622A068B0
:103E700002EB41010144D4F8E001FEF78BFF002082
:103E800041E7308878A1CDE9001041F6471340F2B0
:103E90006F1228A12DA0FEF715F805204745A8D9D7
:103EA000002030E7A16805EBC506022000EB4607BD
:103EB000C85FFCF7E9FDA168C853A168042000EBC6
:103EC0004607C85FFCF7E0FDA168C853A06810F87A
:103ED000161021F0010100F8161029462046FDF7C2
:103EE00031F900200FE703AA29462046FEF7D2FD4C
:103EF00060B169A0CDE9000541F6481340F2931284
:103F00000CA112A0FDF7DEFFFF20FCE603A9D4F808
:103F1000E001FEF73FFF0020F5E6000070726F63DE
:103F200065656450444F2C20636F624944203A20F9
:103F3000000000002E2E5C2E2E5C43414E6F7065FB
:103F40006E5C7372635C70646F2E630025732C2546
:103F500064203A2030582578202573203058257861
:103F6000200D0A00636F62496420666F756E6420DD
:103F7000617420696E646578200000006572726F5C
:103F80007220616363657373696E6720746F207458
:103F90006865206D617070656420766172203A20DA
:103FA000000000002020202020202020204D6170D3
:103FB00070656420617420696E646578203A200021
:103FC00020202020202020202020202020202020F1
:103FD000737562696E646578203A2000436F756C72
:103FE000646E277420676574206D617070696E67F8
:103FF00020706172616D65746572203A2000000066
:104000005661726961626C65207570646174656483
:104010002062792050444F20636F626964203A2007
:104020000000000052656365697665206120504498
:104030004F207265717565737420636F62496420E7
:104040003A20000050444F206973206E6F74207432
:104050006F2073656E64206F6E2072657175657375
:1040600074203A20000000004E6F74207265616475
:1040700079205254525F53594E43205450444F209C
:1040800073656E642063757272656E74206461740A
:1040900061203A200000000020436F756C646E2799
:1040A00074206275696C64205450444F206E756DA5
:1040B000626572203A2000002DE9F04F8BB0044673
:1040C0000D464FF000084FF0030AC146F9A0CDE9B4
:1040D000000943F6602340F20132F9A1FEA0FDF78A
:1040E000F1FE60690088A1690A880027002839D09C
:1040F000042335E0616803EBC00C11F80CC0BCF17F
:10410000010F10D807F59057F9A0CDE9000741F647
:10411000612340F20A32EAA1EFA0FDF7D3FEFF20AF
:104120000BB0BDE8F08F51F830104969B5F800C008
:104130000968614510D14FF0010A07F59050F4A1CC
:10414000CDE9001043F6622340F21132DCA1E2A077
:10415000FDF7B8FE3E4605E07F1CFFB2401C80B272
:104160009042C7D9BAF1030F44D160694788A0696A
:1041700041884FF0000B002F3CD0042238E06068EB
:1041800002EBC703C35C032B0ED80BF5945BE9A0CD
:10419000CDE9000B41F663234FF44872C8A1CEA0CD
:1041A000FDF790FEFF20BBE750F83700006A2B8830
:1041B0000068984216D14FF0020A0BF59450E5A121
:1041C000CDE9001043F6642340F22732BCA1C2A01F
:1041D000FDF778FE5E46606850F83700C06A90F8D8
:1041E000008007E00BF1010B0BF0FF0B7F1CBFB24F
:1041F0008F42C4D9BAF1030F19D0E878082818D033
:10420000DDA0CDE9000941F667234FF44E72ACA161
:10421000B1A0FDF757FE4FF00060CDE900900023FC
:10422000524631462046FEF7F7FDFF2078E7FF2093
:1042300076E7BAF1020F14D0D3A0CDE9000643F619
:10424000692340F241329EA1A3A0FDF73BFE09ABDA
:10425000524631462046FEF741FF0746FF2067B130
:1042600029E0CEA0CDE9000643F6682340F23E32B5
:1042700093A199A0FDF726FEE9E7BAF1010F09D154
:104280009DF8241001EB810104EB011191F82A1033
:1042900004290CD0BAF1020F0DD19DF8241001EBC6
:1042A000810104EB011191F82A10052903D1287925
:1042B000802803D00620FF2802D003E00420FAE77C
:1042C00028794009DFF8E8B205F108010A910728CA
:1042D00083F0AA81DFE810F0070054039706A509D0
:1042E000950C1A0D2013BAF1010F02D0002F78D0CF
:1042F0001BE267B99DF8240000EB800004EB00107E
:1043000090F82A00022801D0012700E00027A7B179
:10431000A848CDE9000641F6702340F2633268A157
:104320006DA0FDF7CFFDCDE9009B0023524631463D
:104330002046FEF771FDFF20F2E69DF824009EA1C5
:10434000CDE9001040F2693743F607233A465CA1F5
:1043500061A0FDF7B7FD9DF8240000EB800104EBA0
:104360000111B1F97210491C3AD09BA1CDE900109E
:1043700043F605233A4652A157A0FDF7A3FD9DF849
:10438000240000EB800004EB0010B0F97200FCF791
:104390007BFB01469DF8240000EB800004EB00103D
:1043A000A0F872109DF8240092A1CDE9001043F608
:1043B00006233A4642A148A0FDF784FD944B954A56
:1043C000CDF800909DF824102046FDF7CBF901466A
:1043D0009DF8240000EB800004EB0010A0F87210A0
:1043E00000E095E18CA0CDE9000643F6712340F290
:1043F0006A3233A138A0FDF765FD9DF8240000EB7B
:10440000800004EB00102B30B0F80580C7792979C3
:104410000278C1F30010824215D08EA1CDE90010C0
:1044200041F6722340F26F3225A12BA0FDF74AFD21
:104430008F484346CDE90070524631462046FEF78C
:10444000EBFCFF206CE6C1F34200C0F107020892CA
:104450006B1D9DF824102046FDF726F958B14FF04A
:104460000060CDE900704346524631462046FEF7D3
:10447000D3FCFF2054E69DF82400202100EB8000AF
:1044800004EB001090F82B0041EA00108DF81800A2
:10449000012006A901F80090401C0828FAD37548AD
:1044A000CDE9000643F6732340F27F3204A10AA04F
:1044B000E2E0000070726F6365656453444F200052
:1044C0002E2E5C2E2E5C43414E6F70656E5C7372B7
:1044D000635C73646F2E630025732C2564203A207F
:1044E000305825782025732030582578200D0A0073
:1044F000537562696E646578203120206E6F742078
:10450000666F756E6420617420696E646578200042
:1045100070726F6365656453444F2E204920616D4E
:10452000207365727665722E20696E646578203A14
:1045300020000000537562696E6465782033202086
:104540006E6F7420666F756E6420617420696E648E
:104550006578200070726F6365656453444F2E2048
:104560004920616D20636C69656E7420696E6465B5
:1045700078203A20000000004572726F7220736943
:104580007A652053444F00004920616D2053455205
:10459000564552206E756D62657220004920616D2E
:1045A00020434C49454E54206E756D626572200063
:1045B00021000008DC87000872657374617274530F
:1045C000444F5F54494D455220666F72206C696EAE
:1045D00065203A200000000053746F7053444F5F11
:1045E00054494D455220666F72206C696E65203AC1
:1045F00020000000537461727453444F5F54494D5E
:10460000455220666F72206C696E65203A2000006A
:10461000E09304006D140008526563656976656473
:104620002053444F20646F776E6C6F616420736514
:10463000676D656E7420646566696E65642061747B
:1046400020696E64657820307831323030202B203C
:104650000000000053444F206572726F72203A20B0
:10466000546F67676C65206572726F72203A200024
:1046700000000305508B0008FDF724FC06AB324612
:104680005146204603F05CFA9DF8240000EB8000C0
:1046900004EB001090F82B1021B3002180F82B10B0
:1046A0002879C00702F0BE879DF824102046FCF749
:1046B00091FF0546C5B1FDA041F6542340F2893271
:1046C000AFF20421CDE90009AFF2F410FDF7FAFBD7
:1046D000CDE900754346524631462046FEF79CFB25
:1046E000FF201DE50121D9E79DF82410204603F0A5
:1046F0007FF8FEA043F6742340F28F32AFF24021E0
:10470000CDE90006AFF23020FDF7DCFB02F08ABFF6
:104710009DF8240000EB800004EB001090F82A00C4
:10472000032801D0012700E00027B7B1FB4841F67C
:1047300075234FF46672AFF27821CDE90008AFF22D
:104740006820FDF7BFFBCDE9009B002352463146B0
:104750002046FEF761FBFF20E2E49DF82400AFF263
:10476000A811CDE9001040F29D3743F607233A46E1
:10477000AFF2B421AFF2A020FDF7A4FB9DF8240016
:1047800000EB800104EB0111B1F97210491C40D01B
:10479000AFF2BC11CDE9001043F605233A46AFF263
:1047A000E021AFF2CC20FDF78DFB9DF8240000EB5B
:1047B000800004EB0010B0F97200FCF765F90146C7
:1047C0009DF8240000EB800004EB0010A0F87210AC
:1047D0009DF82400AFF2E411CDE9001043F6062362
:1047E0003A46AFF22431AFF21030FDF76BFBCC4B01
:1047F000CC4ACDF800909DF824102046FCF7B2FF7B
:1048000001469DF8240000EB800004EB0010A0F8A6
:1048100072109DF8240000EB800004EB00102B3098
:10482000B0F805B0C77901782879C0F30012914239
:1048300017D0BDA041F6762340F2A232AFF280310C
:10484000CDE90008AFF27030FDF73CFBC6485B468F
:10485000CDE90070524631462046FEF7DDFAFF20D2
:104860005EE4C0F34200C0F1070208926B1D9DF8A0
:1048700024102046FCF718FF58B14FF00060CDE936
:1048800000705B46524631462046FEF7C5FAFF20CF
:1048900046E49DF8240000EB800004EB001191F841
:1048A0002B0000284AD0002081F82B002979C90765
:1048B00046D09DF82400AFF2E021CDE9001043F688
:1048C00005234FF46D72AFF20841AFF2F430FDF7FB
:1048D000F9FA9DF8240000EB800004EB0010B0F919
:1048E0007200FCF7D1F801469DF8240000EB80002F
:1048F00004EB0010A0F872109DF82400012100EBD9
:10490000800004EB001080F82A109DF8240000EBD2
:10491000800004EB0010426F12B1414620469047E0
:1049200092A043F677234FF46E72AFF26C41CDE95B
:104930000008AFF25C40FDF7C5FAE7E60120B3E7F7
:10494000602141EA00108DF81800012006A901F845
:104950000090401C0828FAD306AB32465146204648
:1049600003F0EEF889A043F678234FF47072AFF2AB
:10497000B041CDE90008AFF2A040FDF7A3FAC5E6CB
:10498000BAF1010F02D0002F7DD0E1E16879A97959
:1049900040EA0120059095F80780874843F679237F
:1049A00040F2CB32AFF2E841CDE90006AFF2D84099
:1049B000FDF788FA059881A1CDE900104FF46A53FC
:1049C00040F2CD32AFF20851AFF2F440FDF77AFA7F
:1049D0007FA04FF46A5340F2CE32AFF21C51CDE9C2
:1049E0000008AFF20C50FDF76DFAEFB109AA51467D
:1049F0002046FEF725FB00282DD07BA041F6822320
:104A000040F2DA32AFF24851CDE90009AFF2385046
:104A1000FDF758FACDE9008B524631462046059BFA
:104A2000FEF7FAF9FF2003E47FA041F6812340F26C
:104A3000D232AFF27451CDE90009AFF26450FDF704
:104A400041FACDE9008B524631462046059BFEF7E0
:104A5000E3F9FF2070E40220CDE9008032469DF8A2
:104A600024102046059BFEF7BFFB28794108C907A3
:104A70001BD0C0F38100C0F1040008909DF8241001
:104A800001EB810100E056E104EB011148639DF860
:104A9000241020460A9B089AFCF706FE20B14FF02E
:104AA0000060CDE90080D3E0DAE00BE153444F2011
:104AB0006572726F72203A20556E61626C65207467
:104AC0006F20636F70792074686520646174612061
:104AD000696E20746865206F626A6563742064691A
:104AE0006374696F6E6172790000000053444F2E49
:104AF00020456E64206F6620646F776E6C6F616412
:104B000020646566696E656420617420696E646501
:104B10007820307831323030202B2000648C00082F
:104B2000E09304006D14000853444F206572726FC7
:104B300072203A2052656365697665642073656703
:104B40006D656E7420726573706F6E736520546F3F
:104B500067676C65206572726F722E2066726F6D6A
:104B6000206E6F64654964000000030553444F2EB6
:104B700020456E64206F662075706C6F61642066DE
:104B8000726F6D206E6F6465203A200053444F2091
:104B900073656E642075706C6F6164207365676DFA
:104BA000656E74207265717565737420746F206E04
:104BB0006F64654964000000988900085772697441
:104BC000696E6720617420696E646578203A200000
:104BD00057726974696E6720617420737562496EDB
:104BE000646578203A20000053444F206572726F4C
:104BF00072203A204E6F206C696E65206672656582
:104C00002C20746F6F206D616E792053444F2069A2
:104C10006E2070726F67726573732E2041626F72BF
:104C20007465642E0000000053444F206572726F5B
:104C300072203A205472616E736D697373696F6E7E
:104C40002079657420737461727465642E000000AD
:104C5000524631462046059BFEF7DEF8FF2009E468
:104C6000FDA043F6832340F2EE32AFF2AC71CDE902
:104C70000009AFF29C70FDF725F99DF8241020463D
:104C8000FCF7A8FC0546BDB1AFF2E01041F6842365
:104C900040F2F232AFF2D871CDE90009AFF2C8703C
:104CA000FDF710F9CDE90085524631462046059BB7
:104CB000FEF7B2F8FF2014E59DF82410204602F01C
:104CC00097FD1EE0C0071CD0287A697AEA7A00EBCB
:104CD0000120A97A090401EB0261421808929DF8AB
:104CE0002410204603F082F958B14FF00060CDE95E
:104CF0000080524631462046059BFEF78DF8FF2086
:104D0000EFE460208DF8180005988DF819000598DB
:104D1000000A8DF81A008DF81B80042006A901F8FE
:104D20000090401C0828FAD306AB32465146204674
:104D300002F006FFEAE49DF8240000EB800004EB9B
:104D4000001090F82A00022801D0012700E0002777
:104D5000B7B1D04841F6852340F21242AFF6A00128
:104D6000CDE90008AFF69000FDF7ACF8CDE9009B67
:104D70000023524631462046FEF74EF8FF20B0E4AD
:104D80009DF82400AFF2D071CDE9001040F2174732
:104D900043F607233A46AFF6D801AFF6C400FDF755
:104DA00091F89DF8240000EB800104EB0111B1F9AA
:104DB0007210491C40D0AFF2E071CDE9001043F60B
:104DC00005233A46AFF60811AFF6F400FDF77AF87E
:104DD0009DF8240000EB800004EB0010B0F9720095
:104DE000FBF752FE01469DF8240000EB800004EB27
:104DF0000010A0F872109DF82400AFF60801CDE96C
:104E0000001043F606233A46AFF64C11AFF63810C1
:104E1000FDF758F8A04BA14ACDF800909DF824105A
:104E20002046FCF79FFC01469DF8240000EB800023
:104E300004EB0010A0F872109DF8241001EB810023
:104E400004EB00102B30B0F805B0C7792A79007850
:104E5000C2F30012904218D0AFF2343041F68623EC
:104E600040F21C42AFF6A811CDE90008AFF6981049
:104E7000FDF728F88A485B46CDE900705246314676
:104E80002046FDF7C9FFFF202BE408AA2046FEF7C5
:104E900042F9089838B307286DD99DF8240000EB33
:104EA000800004EB001191F82B00002861D0002055
:104EB00081F82B009DF8241000018DF818000DF1E9
:104EC000190307222046FEF747FA00287CD04FF04E
:104ED0000060CDE900705B46524631462046FDF742
:104EE0009BFFFF2038E46FA043F6872340F2244263
:104EF000AFF63421CDE90008AFF62420FCF7E2FF3D
:104F00009DF82400AFF63011CDE9001043F60523DB
:104F100040F22542AFF65821AFF64420FCF7D2FF0D
:104F20009DF8240000EB800004EB0010B0F9720043
:104F3000FBF7AAFD01469DF8240000EB800004EB7E
:104F40000010A0F872109DF82400012100EB8000F1
:104F500004EB001080F82A109DF8240000EB80007C
:104F600004EB0010426F12B14146204690470020EA
:104F700076E401209CE79DF8240000EB800004EB20
:104F8000001191F82B0000B3002081F82B00089A43
:104F90000001C2F1070340EA43009DF82410401CC1
:104FA0008DF8180006AD6B1C2046FEF7D5F970B1E0
:104FB0004FF00060CDE900705B4652463146204616
:104FC000FDF72AFFFF204BE409E00120DDE7089808
:104FD000401C02E005F80090401C0828FAD341A0CC
:104FE00043F6882340F24342AFF62C31CDE9000866
:104FF000AFF61C30FCF766FF06AB32465146204642
:1050000002F09EFD99E4BAF1010F02D0002F22D0E8
:1050100089E16879A97940EA01200590ED793B485A
:1050200043F6892340F24E42AFF66C31CDE90006DB
:10503000AFF65C30FCF746FF059835A1CDE90010CE
:1050400043F690234FF48A62AFF68C31AFF6783096
:10505000FCF738FF66E059E153444F20496E69740C
:105060006961746520446F776E6C6F616420697349
:1050700020616E206578706564697465642074725F
:10508000616E736665722E2046696E697368656429
:105090002E200000648C0008E09304006D140008CA
:1050A0000000030553444F20456E6420646F776E03
:1050B0006C6F61642E207365676D656E7420726518
:1050C00073706F6E73652072656365697665642EB3
:1050D000204F4B2E2066726F6D206E6F64654964A1
:1050E0000000000053444F2073656E64696E6720B2
:1050F000646F776E6C6F6164207365676D656E7445
:1051000020746F206E6F6465496400005089000848
:1051100052656164696E6720617420696E646578A8
:10512000203A2000FDA043F6912340F25142AFF611
:105130007041CDE90005AFF66040FCF7C3FEF7B162
:1051400009AA51462046FDF77BFF00283DD0AFF26B
:10515000685041F6712340F25D42AFF69C41CDE9C3
:105160000009AFF68C40FCF7ADFECDE9005B52467E
:1051700031462046059BFDF74FFEFF2053E49DF886
:105180002400ECA1CDE9001041F6922340F25442F4
:10519000AFF6D441AFF6C040FCF794FEF1A043F661
:1051A000932340F25542AFF6E841CDE90006AFF651
:1051B000D840FCF787FECDE9005B524631462046D9
:1051C000059BFDF729FEFF202DE40320CDE90050CB
:1051D00032469DF824102046059BFEF705F89DF801
:1051E00024102046FEF77EFA0746B7B1E14841F6A3
:1051F000942340F26642AFF63851CDE90007AFF68E
:105200002850FCF75FFECDE9005752463146204654
:10521000059BFDF701FEFF2005E408AA9DF8241078
:105220002046FDF778FF089A042A2AD941208DF8F4
:10523000180005988DF819000598000A8DF81A00D5
:105240008DF81B508DF81C20100A8DF81D00100CD5
:105250008DF81E00100E8DF81F00C74843F69523E9
:105260004FF48F62AFF6A851CDE90008AFF6985021
:10527000FCF728FE06AB32465146204602F060FCA1
:1052800058E5C2F10400432141EA80008DF818007E
:1052900005988DF819000598000A8DF81A008DF808
:1052A0001B5006AF3B1D9DF824102046FEF754F816
:1052B00058B14FF00060CDE90050524631462046CB
:1052C000059BFDF7A9FDFF20C9E40898001D02E039
:1052D00007F80090401C0828FAD3A84843F6962304
:1052E0004FF49162AFF62861CDE90006AFF6186081
:1052F000FCF7E8FD06AB32465146204602F020FCA2
:105300009DF82410204602F073FA13E59DF824005E
:1053100000EB800004EB001090F82A00032801D075
:10532000012700E00027B7B1954841F6972340F2E6
:105330009642AFF67461CDE90008AFF66460FCF701
:10534000C1FDCDE9009B0023524631462046FDF7C2
:1053500063FDFF2083E49DF82410AFF6A45040F2D3
:105360009B4743F607233A46CDE90001AFF6B0610B
:10537000AFF69C60FCF7A6FD9DF8240000EB8001D1
:1053800004EB0111B1F97210491C40D0AFF6B851CD
:10539000CDE9001043F605233A46AFF6DC61AFF6DF
:1053A000C860FCF78FFD9DF8240000EB800004EB43
:1053B0000010B0F97200FBF767FB01469DF824006E
:1053C00000EB800004EB0010A0F872109DF8241090
:1053D000AFF6E05043F606233A46CDE90001AFF6BA
:1053E0002071AFF60C70FCF76DFD664B664ACDF888
:1053F00000909DF824102046FCF7B4F901469DF872
:10540000240000EB800004EB0010A0F872109DF85F
:10541000240000EB800004EB0010B0F830B090F8EE
:10542000327028794108C90765D0C0F38100C0F106
:10543000040208929DF8241020460A9BFCF734F9D8
:1054400058B14FF00060CDE900705B4652463146DE
:105450002046FDF7E1FCFF202DE44CA043F6982305
:1054600040F2A942AFF6A871CDE90008AFF69870F6
:10547000FCF728FD9DF82400AFF6A461CDE90010EB
:1054800043F6052340F2AA42AFF6CC71AFF6B870EE
:10549000FCF718FD9DF8240000EB800004EB0010E1
:1054A000B0F97200FBF7F0FA01469DF8240000EB1A
:1054B000800004EB0010A0F872109DF824000899F9
:1054C00000EB800004EB001041639DF824000121F3
:1054D00000EB800004EB001080F82A109DF82400F7
:1054E00000EB800004EB0010426F12B141462046F1
:1054F0009047002004E4C00776D0287A697AEA7AD7
:1055000000EB0120A97A090401EB0261421808921C
:105510009DF82410204602F069FD58E05265616450
:10552000696E6720617420737562496E64657820C6
:105530003A20000053444F206572726F72203A2067
:105540005472616E736D697373696F6E20796574DF
:105550002073746172746564206174206C696E6577
:10556000203A2000536572766572204E6272203DAB
:1055700020000000D88B0008C48A0008288A000890
:10558000388D0008E09304006D14000853444F2048
:105590006578706564697465642075706C6F6164AA
:1055A0002066696E69736865642E20526573706F3A
:1055B0006E73652072656365697665642066726FD7
:1055C0006D206E6F6465203A200000000CE058B139
:1055D0004FF00060CDE900705B46524631462046F0
:1055E000FDF71AFCFF204FE460208DF81800012021
:1055F00006A901F80090401C0828FAD3F4A0CDE9D0
:105600000008FF4943F6992340F2BE4201F1180019
:10561000FCF758FC06AB32465146204602F090FAA1
:10562000F0E4BAF1010F02D0002F7CD047E167B956
:105630009DF8240000EB800004EB001090F82A0095
:10564000032801D0012700E00027AFB1ED48CDE9E4
:105650000006EB494FF4D55340F2CC4201F118005B
:10566000FCF730FCCDE9009B002352463146204632
:10567000FDF7D2FBFF2007E4E1499DF82400F83153
:10568000CDE9001040F2D247F83943F607233A46F5
:1056900001F11800FCF716FC9DF8240000EB8001D6
:1056A00004EB0111B1F97210491C3FD0D649CDE984
:1056B0000010D34943F605233A4601F11800FCF7E0
:1056C00001FC9DF8240000EB800004EB0010B0F911
:1056D0007200FBF7D9F901469DF8240000EB800029
:1056E00004EB0010A0F87210C7499DF824001C318B
:1056F000CDE90010C24943F606233A4601F11800ED
:10570000FCF7E0FBC14BC24ACDF800909DF8241095
:105710002046FCF727F801469DF8240000EB8000A6
:1057200004EB001000E0BDE0A0F87210B9A0CDE9D4
:105730000006B34943F6A12340F2D34201F1180019
:10574000FCF7C0FB9DF8241001EB810004EB001076
:105750002B30B0F80580C77902782879C0F30010A3
:10576000824217D0A84941F6A2237C31CDE900102E
:10577000A3494FF49B6201F11800FCF7A3FBB34867
:105780004346CDE90070524631462046FDF744FBC2
:10579000FF2018E408AA2046FDF7BDFC089A072A56
:1057A0003ED99DF8241001EB810004EB001090F825
:1057B0002B0000018DF818000DF119030722204677
:1057C000FDF7CAFD58B14FF00060CDE900704346C7
:1057D000524631462046FDF71FFBFF20CEE49DF8E0
:1057E000240000EB800004EB001090F82B10A9B10E
:1057F000002180F82B1096A0CDE90006804943F6E1
:10580000A32340F2E94201F11800FCF75BFB06AB71
:1058100032465146204602F093F931E50121E8E78E
:105820009DF82410C2F1070301EB810004EB001086
:1058300090F82B00000140EA4300401C8DF818004E
:1058400006AD6B1C2046FDF787FD58B14FF0006098
:10585000CDE900704346524631462046FDF7DCFA5A
:10586000FF208BE40898401C02E005F80090401CE3
:105870000828FAD384A0CDE90006614943F6A423A1
:1058800040F2F74201F11800FCF71CFB06AB324670
:105890005146204602F054F99DF82410204601F0AC
:1058A000A7FFEDE49DF8240000EB800004EB00105E
:1058B00090F82A00022801D0012700E00027AFB1AC
:1058C0008048CDE900084E4941F6A52340F2045234
:1058D00001F11800FCF7F6FACDE9009B00235246CF
:1058E00031462046FDF798FAFF2047E446499DF8E7
:1058F00024002039CDE9001040F20955F83943F66B
:1059000007232A4601F11800FCF7DCFA9DF8240071
:1059100000EB800104EB0111B1F97210491C3DD07C
:105920003949CDE90010364943F605232A4601F1ED
:105930001800FCF7C7FA9DF8240000EB800004EB88
:105940000010B0F97200FBF79FF801469DF82400A3
:1059500000EB800004EB0010A0F872102A499DF8BB
:1059600024001C31CDE90010254943F606232A46C0
:1059700001F11800FCF7A6FA244B254ACDF8009057
:105980009DF824102046FBF7EDFE01469DF824000B
:1059900000EB800004EB0010A0F872109DF82410BA
:1059A00001EB810004EB0010B0F830B090F83250F9
:1059B00008AA2046FDF7AFFB089A32B1072A05D99D
:1059C0009DF8241001EB81007EE097E0DBE0000011
:1059D00053444F2E2053656E64696E672075706C5A
:1059E0006F6164207365676D656E74207265717593
:1059F00065737420746F206E6F6465203A20000018
:105A0000C044000828880008D8450008E093040036
:105A10006D14000852656365697665642053444FD0
:105A20002075706C6F6164207365676D656E74209E
:105A3000646566696E656420617420696E6465786A
:105A400020307831323030202B2000000000030558
:105A500053444F2E2053656E64696E672075706CD9
:105A60006F6164207365676D656E74206465666937
:105A70006E656420617420696E64657820307831C9
:105A8000323030202B20000053444F2E2053656EBF
:105A900064696E67206C6173742075706C6F6164EB
:105AA000207365676D656E7420646566696E6564F4
:105AB00020617420696E646578203078313230302E
:105AC000202B2000F08C000804EB001090F82B0035
:105AD00000018DF818000DF1190307222046FDF78B
